{
  "contractName": "writeOnChain",
  "abi": [
    {
      "inputs": [],
      "payable": false,
      "stateMutability": "nonpayable",
      "type": "constructor"
    },
    {
      "anonymous": false,
      "inputs": [
        {
          "indexed": true,
          "name": "id",
          "type": "uint256"
        },
        {
          "indexed": false,
          "name": "name",
          "type": "string"
        },
        {
          "indexed": false,
          "name": "msg",
          "type": "string"
        }
      ],
      "name": "Write",
      "type": "event"
    },
    {
      "constant": false,
      "inputs": [
        {
          "name": "_name",
          "type": "string"
        },
        {
          "name": "_msg",
          "type": "string"
        }
      ],
      "name": "write",
      "outputs": [],
      "payable": false,
      "stateMutability": "nonpayable",
      "type": "function"
    }
  ],
  "bytecode": "0x608060405234801561001057600080fd5b50336000806101000a81548173ffffffffffffffffffffffffffffffffffffffff021916908373ffffffffffffffffffffffffffffffffffffffff1602179055506102f3806100606000396000f3fe608060405260043610610041576000357c0100000000000000000000000000000000000000000000000000000000900463ffffffff1680631e7c019714610046575b600080fd5b34801561005257600080fd5b506101a36004803603604081101561006957600080fd5b810190808035906020019064010000000081111561008657600080fd5b82018360208201111561009857600080fd5b803590602001918460018302840111640100000000831117156100ba57600080fd5b91908080601f016020809104026020016040519081016040528093929190818152602001838380828437600081840152601f19601f8201169050808301925050505050505091929192908035906020019064010000000081111561011d57600080fd5b82018360208201111561012f57600080fd5b8035906020019184600183028401116401000000008311171561015157600080fd5b91908080601f016020809104026020016040519081016040528093929190818152602001838380828437600081840152601f19601f8201169050808301925050505050505091929192905050506101a5565b005b6001600081548092919060010191905055506001547f2276f4399ac135ce27bf6e254137abde3f960f4831a2923792be3579d18bb1f68383604051808060200180602001838103835285818151815260200191508051906020019080838360005b83811015610221578082015181840152602081019050610206565b50505050905090810190601f16801561024e5780820380516001836020036101000a031916815260200191505b50838103825284818151815260200191508051906020019080838360005b8381101561028757808201518184015260208101905061026c565b50505050905090810190601f1680156102b45780820380516001836020036101000a031916815260200191505b5094505050505060405180910390a2505056fea165627a7a72305820d40e017cdd4c01d24f8d43fc6848cd566f0b383d1ed3ed64f29258178685db690029",
  "source": "pragma solidity ^0.5.0;\n\n\ncontract writeOnChain {\n\taddress deployer;\n\tuint id;\n\n\tevent Write(uint indexed id, string name, string msg);\n\n  constructor() public {\n  \tdeployer = msg.sender;\n\n  }\n\n  function write(string memory _name, string memory _msg) public {\n  \tid++;\n  \temit Write(id, _name, _msg);\n  }\n\n}\n",
  "sourcePath": "/home/workspace/projects/tweetBot/contract/contracts/writeOnChain.sol",
  "compiler": {
    "name": "solc",
    "version": "0.5.0+commit.1d4f565a.Emscripten.clang"
  },
  "schemaVersion": "3.0.1",
  "updatedAt": "2019-02-04T17:16:13.763Z",
  "devdoc": {
    "methods": {}
  },
  "userdoc": {
    "methods": {}
  }
}